{"abi":[{"type":"constructor","inputs":[],"stateMutability":"nonpayable"},{"type":"receive","stateMutability":"payable"},{"type":"function","name":"BLACKLISTED_ROLE","inputs":[],"outputs":[{"name":"","type":"bytes32","internalType":"bytes32"}],"stateMutability":"view"},{"type":"function","name":"DEFAULT_ADMIN_ROLE","inputs":[],"outputs":[{"name":"","type":"bytes32","internalType":"bytes32"}],"stateMutability":"view"},{"type":"function","name":"balances","inputs":[{"name":"","type":"address","internalType":"address"}],"outputs":[{"name":"","type":"uint256","internalType":"uint256"}],"stateMutability":"view"},{"type":"function","name":"blackListStaker","inputs":[{"name":"user","type":"address","internalType":"address"},{"name":"toggle","type":"bool","internalType":"bool"}],"outputs":[],"stateMutability":"nonpayable"},{"type":"function","name":"emergencyWithdraw","inputs":[],"outputs":[],"stateMutability":"nonpayable"},{"type":"function","name":"getRoleAdmin","inputs":[{"name":"role","type":"bytes32","internalType":"bytes32"}],"outputs":[{"name":"","type":"bytes32","internalType":"bytes32"}],"stateMutability":"view"},{"type":"function","name":"grantRole","inputs":[{"name":"role","type":"bytes32","internalType":"bytes32"},{"name":"account","type":"address","internalType":"address"}],"outputs":[],"stateMutability":"nonpayable"},{"type":"function","name":"hasRole","inputs":[{"name":"role","type":"bytes32","internalType":"bytes32"},{"name":"account","type":"address","internalType":"address"}],"outputs":[{"name":"","type":"bool","internalType":"bool"}],"stateMutability":"view"},{"type":"function","name":"increaseLockTime","inputs":[{"name":"_timeinsecond","type":"uint256","internalType":"uint256"}],"outputs":[],"stateMutability":"nonpayable"},{"type":"function","name":"lockTime","inputs":[{"name":"","type":"address","internalType":"address"}],"outputs":[{"name":"","type":"uint256","internalType":"uint256"}],"stateMutability":"view"},{"type":"function","name":"renounceRole","inputs":[{"name":"role","type":"bytes32","internalType":"bytes32"},{"name":"callerConfirmation","type":"address","internalType":"address"}],"outputs":[],"stateMutability":"nonpayable"},{"type":"function","name":"revokeRole","inputs":[{"name":"role","type":"bytes32","internalType":"bytes32"},{"name":"account","type":"address","internalType":"address"}],"outputs":[],"stateMutability":"nonpayable"},{"type":"function","name":"signer","inputs":[],"outputs":[{"name":"","type":"address","internalType":"address"}],"stateMutability":"view"},{"type":"function","name":"stake","inputs":[],"outputs":[],"stateMutability":"payable"},{"type":"function","name":"supportsInterface","inputs":[{"name":"interfaceId","type":"bytes4","internalType":"bytes4"}],"outputs":[{"name":"","type":"bool","internalType":"bool"}],"stateMutability":"view"},{"type":"function","name":"totalStaked","inputs":[],"outputs":[{"name":"","type":"uint256","internalType":"uint256"}],"stateMutability":"view"},{"type":"function","name":"unstake","inputs":[{"name":"_amount","type":"uint256","internalType":"uint256"}],"outputs":[],"stateMutability":"nonpayable"},{"type":"function","name":"unstakeWithSignature","inputs":[{"name":"_amount","type":"uint256","internalType":"uint256"},{"name":"_secret","type":"bytes32","internalType":"bytes32"},{"name":"_r","type":"bytes32","internalType":"bytes32"},{"name":"_s","type":"bytes32","internalType":"bytes32"},{"name":"_v","type":"uint8","internalType":"uint8"}],"outputs":[],"stateMutability":"nonpayable"},{"type":"event","name":"RoleAdminChanged","inputs":[{"name":"role","type":"bytes32","indexed":true,"internalType":"bytes32"},{"name":"previousAdminRole","type":"bytes32","indexed":true,"internalType":"bytes32"},{"name":"newAdminRole","type":"bytes32","indexed":true,"internalType":"bytes32"}],"anonymous":false},{"type":"event","name":"RoleGranted","inputs":[{"name":"role","type":"bytes32","indexed":true,"internalType":"bytes32"},{"name":"account","type":"address","indexed":true,"internalType":"address"},{"name":"sender","type":"address","indexed":true,"internalType":"address"}],"anonymous":false},{"type":"event","name":"RoleRevoked","inputs":[{"name":"role","type":"bytes32","indexed":true,"internalType":"bytes32"},{"name":"account","type":"address","indexed":true,"internalType":"address"},{"name":"sender","type":"address","indexed":true,"internalType":"address"}],"anonymous":false},{"type":"error","name":"AccessControlBadConfirmation","inputs":[]},{"type":"error","name":"AccessControlUnauthorizedAccount","inputs":[{"name":"account","type":"address","internalType":"address"},{"name":"neededRole","type":"bytes32","internalType":"bytes32"}]}],"bytecode":{"object":"0x6080604052348015600f57600080fd5b5060196000336030565b50600180546001600160a01b0319163317905560d9565b6000828152602081815260408083206001600160a01b038516845290915281205460ff1660cf576000838152602081815260408083206001600160a01b03861684529091529020805460ff1916600117905560883390565b6001600160a01b0316826001600160a01b0316847f2f8788117e7eff1d82e926ec794901d17c78024a50270940304540a733656f0d60405160405180910390a450600160d3565b5060005b92915050565b610c74806100e86000396000f3fe60806040526004361061010d5760003560e01c806362b199c511610095578063a217fddf11610064578063a217fddf146102f3578063a4beda6314610308578063c7c7a99414610335578063d547741f14610355578063db2e21bc1461037557600080fd5b806362b199c51461027b57806379af55e41461029d578063817b1cd2146102bd57806391d14854146102d357600080fd5b80632e17de78116100dc5780632e17de78146101f15780632f2ff15d1461021357806336568abe146102335780633a4b66f1146102535780633b9726791461025b57600080fd5b806301ffc9a714610119578063238ac9331461014e578063248a9ca31461018657806327e235e3146101c457600080fd5b3661011457005b600080fd5b34801561012557600080fd5b50610139610134366004610aa6565b61038a565b60405190151581526020015b60405180910390f35b34801561015a57600080fd5b5060015461016e906001600160a01b031681565b6040516001600160a01b039091168152602001610145565b34801561019257600080fd5b506101b66101a1366004610ad7565b60009081526020819052604090206001015490565b604051908152602001610145565b3480156101d057600080fd5b506101b66101df366004610b0c565b60036020526000908152604090205481565b3480156101fd57600080fd5b5061021161020c366004610ad7565b6103c1565b005b34801561021f57600080fd5b5061021161022e366004610b27565b6105b4565b34801561023f57600080fd5b5061021161024e366004610b27565b6105df565b610211610617565b34801561026757600080fd5b50610211610276366004610b53565b610672565b34801561028757600080fd5b506101b6600080516020610c1f83398151915281565b3480156102a957600080fd5b506102116102b8366004610ad7565b6106b3565b3480156102c957600080fd5b506101b660025481565b3480156102df57600080fd5b506101396102ee366004610b27565b6106f7565b3480156102ff57600080fd5b506101b6600081565b34801561031457600080fd5b506101b6610323366004610b0c565b60046020526000908152604090205481565b34801561034157600080fd5b50610211610350366004610b8f565b610720565b34801561036157600080fd5b50610211610370366004610b27565b610921565b34801561038157600080fd5b50610211610946565b60006001600160e01b03198216637965db0b60e01b14806103bb57506301ffc9a760e01b6001600160e01b03198316145b92915050565b6103d9600080516020610c1f833981519152336106f7565b156104195760405162461bcd60e51b815260206004820152600b60248201526a189b1858dadb1a5cdd195960aa1b60448201526064015b60405180910390fd5b3360009081526003602052604090205481111561046d5760405162461bcd60e51b8152602060048201526012602482015271696e73756666696369656e742066756e647360701b6044820152606401610410565b60004760025461047d9190610bf8565b10156104c25760405162461bcd60e51b81526020600482015260146024820152730e4cae2ead2e4cadacadce840dad2e6dac2e8c6d60631b6044820152606401610410565b3360009081526004602052604090205442116105185760405162461bcd60e51b81526020600482015260156024820152741b1bd8dac81d1a5b59481b9bdd08195e1c1a5c9959605a1b6044820152606401610410565b3360009081526003602052604081208054839290610537908490610bf8565b9250508190555080600260008282546105509190610bf8565b9091555050604051600090339083905b60006040518083038185875af1925050503d806000811461059d576040519150601f19603f3d011682016040523d82523d6000602084013e6105a2565b606091505b50509050806105b057600080fd5b5050565b6000828152602081905260409020600101546105cf81610966565b6105d98383610970565b50505050565b6001600160a01b03811633146106085760405163334bd91960e11b815260040160405180910390fd5b6106128282610a02565b505050565b34600260008282546106299190610c0b565b9091555050336000908152600360205260408120805434929061064d908490610c0b565b909155506106609050426213c680610c0b565b33600090815260046020526040902055565b600061067d81610966565b811561069b576105d9600080516020610c1f83398151915284610970565b6105d9600080516020610c1f83398151915284610a02565b33600090815260046020526040902054156106f457336000908152600460205260409020546106e3908290610c0b565b336000908152600460205260409020555b50565b6000918252602082815260408084206001600160a01b0393909316845291905290205460ff1690565b336000908152600360205260409020548511156107745760405162461bcd60e51b8152602060048201526012602482015271696e73756666696369656e742066756e647360701b6044820152606401610410565b6000476002546107849190610bf8565b10156107c95760405162461bcd60e51b81526020600482015260146024820152730e4cae2ead2e4cadacadce840dad2e6dac2e8c6d60631b6044820152606401610410565b604080516020810187905290810185905260009060600160408051601f198184030181528282528051602091820120600080855291840180845281905260ff86169284019290925260608301879052608083018690529092509060019060a0016020604051602081039080840390855afa15801561084b573d6000803e3d6000fd5b5050604051601f1901516001549092506001600160a01b0380841691161490506108ab5760405162461bcd60e51b8152602060048201526011602482015270496e76616c6964205369676e617475726560781b6044820152606401610410565b86600260008282546108bd9190610bf8565b9091555050604051600090339089908381818185875af1925050503d8060008114610904576040519150601f19603f3d011682016040523d82523d6000602084013e610909565b606091505b505090508061091757600080fd5b5050505050505050565b60008281526020819052604090206001015461093c81610966565b6105d98383610a02565b600061095181610966565b6000336001600160a01b031647604051610560565b6106f48133610a6d565b600061097c83836106f7565b6109fa576000838152602081815260408083206001600160a01b03861684529091529020805460ff191660011790556109b23390565b6001600160a01b0316826001600160a01b0316847f2f8788117e7eff1d82e926ec794901d17c78024a50270940304540a733656f0d60405160405180910390a45060016103bb565b5060006103bb565b6000610a0e83836106f7565b156109fa576000838152602081815260408083206001600160a01b0386168085529252808320805460ff1916905551339286917ff6391f5c32d9c69d2a47ea670b442974b53935d1edc7fd64eb21e047a839171b9190a45060016103bb565b610a7782826106f7565b6105b05760405163e2517d3f60e01b81526001600160a01b038216600482015260248101839052604401610410565b600060208284031215610ab857600080fd5b81356001600160e01b031981168114610ad057600080fd5b9392505050565b600060208284031215610ae957600080fd5b5035919050565b80356001600160a01b0381168114610b0757600080fd5b919050565b600060208284031215610b1e57600080fd5b610ad082610af0565b60008060408385031215610b3a57600080fd5b82359150610b4a60208401610af0565b90509250929050565b60008060408385031215610b6657600080fd5b610b6f83610af0565b915060208301358015158114610b8457600080fd5b809150509250929050565b600080600080600060a08688031215610ba757600080fd5b85359450602086013593506040860135925060608601359150608086013560ff81168114610bd457600080fd5b809150509295509295909350565b634e487b7160e01b600052601160045260246000fd5b818103818111156103bb576103bb610be2565b808201808211156103bb576103bb610be256fe548c7f0307ab2a7ea894e5c7e8c5353cc750bb9385ee2e945f189a9a83daa8eda2646970667358221220a2740ceeea2a5615e314ee867de0f0bc3549309e6ca899420f955846be3f734d64736f6c63430008190033","linkReferences":{}},"methodIdentifiers":{"BLACKLISTED_ROLE()":"62b199c5","DEFAULT_ADMIN_ROLE()":"a217fddf","balances(address)":"27e235e3","blackListStaker(address,bool)":"3b972679","emergencyWithdraw()":"db2e21bc","getRoleAdmin(bytes32)":"248a9ca3","grantRole(bytes32,address)":"2f2ff15d","hasRole(bytes32,address)":"91d14854","increaseLockTime(uint256)":"79af55e4","lockTime(address)":"a4beda63","renounceRole(bytes32,address)":"36568abe","revokeRole(bytes32,address)":"d547741f","signer()":"238ac933","stake()":"3a4b66f1","supportsInterface(bytes4)":"01ffc9a7","totalStaked()":"817b1cd2","unstake(uint256)":"2e17de78","unstakeWithSignature(uint256,bytes32,bytes32,bytes32,uint8)":"c7c7a994"},"id":30}