{"abi":[{"type":"constructor","inputs":[],"stateMutability":"nonpayable"},{"type":"receive","stateMutability":"payable"},{"type":"function","name":"balances","inputs":[{"name":"","type":"address","internalType":"address"}],"outputs":[{"name":"","type":"uint256","internalType":"uint256"}],"stateMutability":"view"},{"type":"function","name":"changeOwner","inputs":[{"name":"newOwner","type":"address","internalType":"address"}],"outputs":[],"stateMutability":"nonpayable"},{"type":"function","name":"emergencyWithdraw","inputs":[],"outputs":[],"stateMutability":"nonpayable"},{"type":"function","name":"increaseLockTime","inputs":[{"name":"_timeinseconds","type":"uint256","internalType":"uint256"}],"outputs":[],"stateMutability":"nonpayable"},{"type":"function","name":"lockTime","inputs":[{"name":"","type":"address","internalType":"address"}],"outputs":[{"name":"","type":"uint256","internalType":"uint256"}],"stateMutability":"view"},{"type":"function","name":"owner","inputs":[],"outputs":[{"name":"","type":"address","internalType":"address"}],"stateMutability":"view"},{"type":"function","name":"signer","inputs":[],"outputs":[{"name":"","type":"address","internalType":"address"}],"stateMutability":"view"},{"type":"function","name":"stake","inputs":[],"outputs":[],"stateMutability":"payable"},{"type":"function","name":"totalStaked","inputs":[],"outputs":[{"name":"","type":"uint256","internalType":"uint256"}],"stateMutability":"view"},{"type":"function","name":"unstake","inputs":[{"name":"_amount","type":"uint256","internalType":"uint256"}],"outputs":[],"stateMutability":"nonpayable"},{"type":"function","name":"unstakeWithSignature","inputs":[{"name":"_amount","type":"uint256","internalType":"uint256"},{"name":"_secret","type":"bytes32","internalType":"bytes32"},{"name":"_r","type":"bytes32","internalType":"bytes32"},{"name":"_s","type":"bytes32","internalType":"bytes32"},{"name":"_v","type":"uint8","internalType":"uint8"}],"outputs":[],"stateMutability":"nonpayable"}],"bytecode":{"object":"0x608060405234801561001057600080fd5b5060008054336001600160a01b031991821681178355600180549092161790556107a190819061004090396000f3fe6080604052600436106100a05760003560e01c8063817b1cd211610064578063817b1cd2146101805780638da5cb5b14610195578063a4beda63146101aa578063a6f9dae1146101dd578063c7c7a99414610210578063db2e21bc14610255576100a7565b8063238ac933146100ac57806327e235e3146100dd5780632e17de78146101225780633a4b66f11461014e57806379af55e414610156576100a7565b366100a757005b600080fd5b3480156100b857600080fd5b506100c161026a565b604080516001600160a01b039092168252519081900360200190f35b3480156100e957600080fd5b506101106004803603602081101561010057600080fd5b50356001600160a01b0316610279565b60408051918252519081900360200190f35b34801561012e57600080fd5b5061014c6004803603602081101561014557600080fd5b503561028b565b005b61014c610404565b34801561016257600080fd5b5061014c6004803603602081101561017957600080fd5b5035610438565b34801561018c57600080fd5b50610110610466565b3480156101a157600080fd5b506100c161046c565b3480156101b657600080fd5b50610110600480360360208110156101cd57600080fd5b50356001600160a01b031661047b565b3480156101e957600080fd5b5061014c6004803603602081101561020057600080fd5b50356001600160a01b031661048d565b34801561021c57600080fd5b5061014c600480360360a081101561023357600080fd5b508035906020810135906040810135906060810135906080013560ff166104fe565b34801561026157600080fd5b5061014c610703565b6001546001600160a01b031681565b60036020526000908152604090205481565b336000908152600360205260409020548111156102e4576040805162461bcd60e51b8152602060048201526012602482015271696e73756666696369656e742066756e647360701b604482015290519081900360640190fd5b33600090815260046020526040902054421161033f576040805162461bcd60e51b81526020600482015260156024820152741b1bd8dac81d1a5b59481b9bdd08195e1c1a5c9959605a1b604482015290519081900360640190fd5b476002540360001461038f576040805162461bcd60e51b81526020600482015260146024820152730e4cae2ead2e4cadacadce840dad2e6dac2e8c6d60631b604482015290519081900360640190fd5b33600081815260036020526040808220805485900390556002805485900390555190919083908381818185875af1925050503d80600081146103ed576040519150601f19603f3d011682016040523d82523d6000602084013e6103f2565b606091505b505090508061040057600080fd5b5050565b6002805434908101909155336000908152600360209081526040808320805490940190935560049052206213c68042019055565b3360009081526004602052604090205415610463573360009081526004602052604090208054820190555b50565b60025481565b6000546001600160a01b031681565b60046020526000908152604090205481565b6000546001600160a01b03163314156104dc576040805162461bcd60e51b815260206004820152600c60248201526b3737ba1030b71037bbb732b960a11b604482015290519081900360640190fd5b600080546001600160a01b0319166001600160a01b0392909216919091179055565b33600090815260036020526040902054851115610557576040805162461bcd60e51b8152602060048201526012602482015271696e73756666696369656e742066756e647360701b604482015290519081900360640190fd5b47600254036000146105a7576040805162461bcd60e51b81526020600482015260146024820152730e4cae2ead2e4cadacadce840dad2e6dac2e8c6d60631b604482015290519081900360640190fd5b60408051602080820188905281830187905233606090811b9083015282516054818403018152607483018085528151918301919091206000918290526094840180865281905260ff861660b485015260d4840188905260f4840187905293519092600192610114808301939192601f198301929081900390910190855afa158015610636573d6000803e3d6000fd5b5050604051601f1901516001549092506001600160a01b03808416911614905061069b576040805162461bcd60e51b8152602060048201526011602482015270496e76616c6964205369676e617475726560781b604482015290519081900360640190fd5b600280548890039055604051600090339089908381818185875af1925050503d80600081146106e6576040519150601f19603f3d011682016040523d82523d6000602084013e6106eb565b606091505b50509050806106f957600080fd5b5050505050505050565b6000546001600160a01b03163314156100a757604051600090339047908381818185875af1925050503d8060008114610758576040519150601f19603f3d011682016040523d82523d6000602084013e61075d565b606091505b505090508061046357600080fdfea264697066735822122089d39bc062bec969d914e04eafc4717787ec7ff5548b4a4159b81771fa8864f964736f6c63430007060033","linkReferences":{}},"methodIdentifiers":{"balances(address)":"27e235e3","changeOwner(address)":"a6f9dae1","emergencyWithdraw()":"db2e21bc","increaseLockTime(uint256)":"79af55e4","lockTime(address)":"a4beda63","owner()":"8da5cb5b","signer()":"238ac933","stake()":"3a4b66f1","totalStaked()":"817b1cd2","unstake(uint256)":"2e17de78","unstakeWithSignature(uint256,bytes32,bytes32,bytes32,uint8)":"c7c7a994"},"id":23}