{"abi":[{"type":"function","name":"balances","inputs":[{"name":"","type":"address","internalType":"address"}],"outputs":[{"name":"","type":"uint256","internalType":"uint256"}],"stateMutability":"view"},{"type":"function","name":"deposit","inputs":[],"outputs":[],"stateMutability":"payable"},{"type":"function","name":"transfer","inputs":[{"name":"_from","type":"address","internalType":"address"},{"name":"_to","type":"address","internalType":"address"},{"name":"_amount","type":"uint256","internalType":"uint256"}],"outputs":[],"stateMutability":"nonpayable"},{"type":"function","name":"withdraw","inputs":[],"outputs":[],"stateMutability":"nonpayable"}],"bytecode":{"object":"0x6080604052348015600f57600080fd5b506104668061001f6000396000f3fe60806040526004361061003f5760003560e01c806327e235e3146100445780633ccfd60b14610083578063beabacc81461009a578063d0e30db0146100ba575b600080fd5b34801561005057600080fd5b5061007161005f366004610390565b60006020819052908152604090205481565b60405190815260200160405180910390f35b34801561008f57600080fd5b506100986100c2565b005b3480156100a657600080fd5b506100986100b53660046103b2565b610184565b61009861030e565b32600090815260208190526040902054806100dc57600080fd5b604051600090329083908381818185875af1925050503d806000811461011e576040519150601f19603f3d011682016040523d82523d6000602084013e610123565b606091505b50509050806101705760405162461bcd60e51b81526020600482015260146024820152732330b4b632b2103a379039b2b7321022ba3432b960611b60448201526064015b60405180910390fd5b505032600090815260208190526040812055565b326001600160a01b038416146101cd5760405162461bcd60e51b815260206004820152600e60248201526d1b9bdd08185d5d1a1bdc9a5cd95960921b6044820152606401610167565b3260009081526020819052604090205481111561021f5760405162461bcd60e51b815260206004820152601060248201526f6e6f7420656e6f7567682066756e647360801b6044820152606401610167565b6001600160a01b03821660009081526020819052604081208054839290610247908490610404565b9091555050326000908152602081905260408120805483929061026b90849061041d565b90915550506040516000906001600160a01b0384169083908381818185875af1925050503d80600081146102bb576040519150601f19603f3d011682016040523d82523d6000602084013e6102c0565b606091505b50509050806103085760405162461bcd60e51b81526020600482015260146024820152732330b4b632b2103a379039b2b7321022ba3432b960611b6044820152606401610167565b50505050565b32331461034e5760405162461bcd60e51b815260206004820152600e60248201526d1b9bdd08185d5d1a1bdc9a5cd95960921b6044820152606401610167565b336000908152602081905260408120805434929061036d908490610404565b9091555050565b80356001600160a01b038116811461038b57600080fd5b919050565b6000602082840312156103a257600080fd5b6103ab82610374565b9392505050565b6000806000606084860312156103c757600080fd5b6103d084610374565b92506103de60208501610374565b9150604084013590509250925092565b634e487b7160e01b600052601160045260246000fd5b80820180821115610417576104176103ee565b92915050565b81810381811115610417576104176103ee56fea2646970667358221220b661fa5a181bb66953d3582b77a97d9208aa2b7462b734cd82a2157d6b9b7de964736f6c63430008190033","linkReferences":{}},"methodIdentifiers":{"balances(address)":"27e235e3","deposit()":"d0e30db0","transfer(address,address,uint256)":"beabacc8","withdraw()":"3ccfd60b"},"id":32}