{"abi":[{"type":"constructor","inputs":[],"stateMutability":"payable"},{"type":"function","name":"guessNumber","inputs":[{"name":"number","type":"uint256","internalType":"uint256"}],"outputs":[],"stateMutability":"payable"}],"bytecode":{"object":"0x6080604052671bc16d674ec8000034101560505760405162461bcd60e51b815260206004820152600e60248201526d1b9bdd08195b9bdd59da081c1bdd60921b604482015260640160405180910390fd5b6101b18061005f6000396000f3fe60806040526004361061001e5760003560e01c8063b438d01814610023575b600080fd5b610036610031366004610140565b610038565b005b333b1561004457600080fd5b32331461005057600080fd5b662386f26fc1000034101561009c5760405162461bcd60e51b815260206004820152600e60248201526d1b9bdd08195b9bdd59da0818995d60921b604482015260640160405180910390fd5b604080514260208201524491810191909152606081018290526101f4906080016040516020818303038152906040528051906020012060001c6100df9190610159565b60010361013d57604051600090339047908381818185875af1925050503d8060008114610128576040519150601f19603f3d011682016040523d82523d6000602084013e61012d565b606091505b505090508061013b57600080fd5b505b50565b60006020828403121561015257600080fd5b5035919050565b60008261017657634e487b7160e01b600052601260045260246000fd5b50069056fea26469706673582212202b629390dc7d47debfc4ccc697301c5e35a53ebf36aee61799577ccca43cd3ab64736f6c63430008190033","linkReferences":{}},"methodIdentifiers":{"guessNumber(uint256)":"b438d018"},"id":31}